{
  "contractName": "Text",
  "abi": [
    {
      "inputs": [
        {
          "internalType": "string",
          "name": "text",
          "type": "string"
        }
      ],
      "stateMutability": "nonpayable",
      "type": "constructor"
    },
    {
      "inputs": [],
      "name": "_text",
      "outputs": [
        {
          "internalType": "string",
          "name": "",
          "type": "string"
        }
      ],
      "stateMutability": "view",
      "type": "function",
      "constant": true
    },
    {
      "inputs": [
        {
          "internalType": "string",
          "name": "text",
          "type": "string"
        }
      ],
      "name": "setText",
      "outputs": [],
      "stateMutability": "nonpayable",
      "type": "function"
    },
    {
      "inputs": [],
      "name": "getText",
      "outputs": [
        {
          "internalType": "string",
          "name": "",
          "type": "string"
        }
      ],
      "stateMutability": "view",
      "type": "function",
      "constant": true
    },
    {
      "inputs": [
        {
          "internalType": "uint256",
          "name": "error",
          "type": "uint256"
        }
      ],
      "name": "errorOccur",
      "outputs": [
        {
          "internalType": "uint256",
          "name": "",
          "type": "uint256"
        }
      ],
      "stateMutability": "pure",
      "type": "function",
      "constant": true
    }
  ],
  "bytecode": "0x60806040523480156200001157600080fd5b5060405162000a4738038062000a478339818101604052810190620000379190620002a4565b80600090805190602001906200004f92919062000057565b505062000359565b828054620000659062000324565b90600052602060002090601f016020900481019282620000895760008555620000d5565b82601f10620000a457805160ff1916838001178555620000d5565b82800160010185558215620000d5579182015b82811115620000d4578251825591602001919060010190620000b7565b5b509050620000e49190620000e8565b5090565b5b8082111562000103576000816000905550600101620000e9565b5090565b6000604051905090565b600080fd5b600080fd5b600080fd5b600080fd5b6000601f19601f8301169050919050565b7f4e487b7100000000000000000000000000000000000000000000000000000000600052604160045260246000fd5b620001708262000125565b810181811067ffffffffffffffff8211171562000192576200019162000136565b5b80604052505050565b6000620001a762000107565b9050620001b5828262000165565b919050565b600067ffffffffffffffff821115620001d857620001d762000136565b5b620001e38262000125565b9050602081019050919050565b60005b8381101562000210578082015181840152602081019050620001f3565b8381111562000220576000848401525b50505050565b60006200023d6200023784620001ba565b6200019b565b9050828152602081018484840111156200025c576200025b62000120565b5b62000269848285620001f0565b509392505050565b600082601f8301126200028957620002886200011b565b5b81516200029b84826020860162000226565b91505092915050565b600060208284031215620002bd57620002bc62000111565b5b600082015167ffffffffffffffff811115620002de57620002dd62000116565b5b620002ec8482850162000271565b91505092915050565b7f4e487b7100000000000000000000000000000000000000000000000000000000600052602260045260246000fd5b600060028204905060018216806200033d57607f821691505b602082108103620003535762000352620002f5565b5b50919050565b6106de80620003696000396000f3fe608060405234801561001057600080fd5b506004361061004c5760003560e01c80632404129d146100515780632eebb8ef146100815780635d3a1f9d1461009f578063e00fe2eb146100bb575b600080fd5b61006b6004803603810190610066919061034c565b6100d9565b6040516100789190610388565b60405180910390f35b610089610125565b604051610096919061043c565b60405180910390f35b6100b960048036038101906100b49190610593565b6101b3565b005b6100c36101cd565b6040516100d0919061043c565b60405180910390f35b600080821461011d576040517f08c379a000000000000000000000000000000000000000000000000000000000815260040161011490610628565b60405180910390fd5b819050919050565b6000805461013290610677565b80601f016020809104026020016040519081016040528092919081815260200182805461015e90610677565b80156101ab5780601f10610180576101008083540402835291602001916101ab565b820191906000526020600020905b81548152906001019060200180831161018e57829003601f168201915b505050505081565b80600090805190602001906101c992919061025f565b5050565b6060600080546101dc90610677565b80601f016020809104026020016040519081016040528092919081815260200182805461020890610677565b80156102555780601f1061022a57610100808354040283529160200191610255565b820191906000526020600020905b81548152906001019060200180831161023857829003601f168201915b5050505050905090565b82805461026b90610677565b90600052602060002090601f01602090048101928261028d57600085556102d4565b82601f106102a657805160ff19168380011785556102d4565b828001600101855582156102d4579182015b828111156102d35782518255916020019190600101906102b8565b5b5090506102e191906102e5565b5090565b5b808211156102fe5760008160009055506001016102e6565b5090565b6000604051905090565b600080fd5b600080fd5b6000819050919050565b61032981610316565b811461033457600080fd5b50565b60008135905061034681610320565b92915050565b6000602082840312156103625761036161030c565b5b600061037084828501610337565b91505092915050565b61038281610316565b82525050565b600060208201905061039d6000830184610379565b92915050565b600081519050919050565b600082825260208201905092915050565b60005b838110156103dd5780820151818401526020810190506103c2565b838111156103ec576000848401525b50505050565b6000601f19601f8301169050919050565b600061040e826103a3565b61041881856103ae565b93506104288185602086016103bf565b610431816103f2565b840191505092915050565b600060208201905081810360008301526104568184610403565b905092915050565b600080fd5b600080fd5b7f4e487b7100000000000000000000000000000000000000000000000000000000600052604160045260246000fd5b6104a0826103f2565b810181811067ffffffffffffffff821117156104bf576104be610468565b5b80604052505050565b60006104d2610302565b90506104de8282610497565b919050565b600067ffffffffffffffff8211156104fe576104fd610468565b5b610507826103f2565b9050602081019050919050565b82818337600083830152505050565b6000610536610531846104e3565b6104c8565b90508281526020810184848401111561055257610551610463565b5b61055d848285610514565b509392505050565b600082601f83011261057a5761057961045e565b5b813561058a848260208601610523565b91505092915050565b6000602082840312156105a9576105a861030c565b5b600082013567ffffffffffffffff8111156105c7576105c6610311565b5b6105d384828501610565565b91505092915050565b7f4572726f72000000000000000000000000000000000000000000000000000000600082015250565b60006106126005836103ae565b915061061d826105dc565b602082019050919050565b6000602082019050818103600083015261064181610605565b9050919050565b7f4e487b7100000000000000000000000000000000000000000000000000000000600052602260045260246000fd5b6000600282049050600182168061068f57607f821691505b6020821081036106a2576106a1610648565b5b5091905056fea2646970667358221220012a54f7a0552bc8f4a9447701ff52a961d9443c25ca639d5ba6b13bcd9611b764736f6c634300080e0033",
  "immutableReferences": {},
  "source": "// SPDX-License-Identifier: MIT\r\npragma solidity >=0.4.22 <0.9.0;\r\n\r\ncontract Text {\r\n  string public _text;\r\n\r\n  constructor(string memory text) {\r\n    _text = text;\r\n  }\r\n\r\n  function setText(string memory text) public {\r\n    _text = text;\r\n  }\r\n\r\n  function getText() public view returns (string memory) {\r\n    return _text;\r\n  }\r\n\r\n  function errorOccur(uint256 error) public pure returns (uint256) {\r\n    require(error == 0, 'Error');\r\n\r\n    return error;\r\n  }\r\n}\r\n",
  "sourcePath": "C:\\Workspace\\learn\\learn-nft\\02-truffle\\contracts\\Text.sol",
  "compiler": {
    "name": "solc",
    "version": "0.8.14+commit.80d49f37.Emscripten.clang"
  },
  "schemaVersion": "3.4.7",
  "updatedAt": "2022-06-30T00:14:57.787Z",
  "networkType": "ethereum",
  "devdoc": {
    "kind": "dev",
    "methods": {},
    "version": 1
  },
  "userdoc": {
    "kind": "user",
    "methods": {},
    "version": 1
  }
}